:020000040000FA
:100000000C9463000C948B000C948B000C948B006C
:100010000C948B000C948B000C948B000C948B0034
:100020000C948B000C948B000C948B000C948B0024
:100030000C948B000C948B000C948B000C948B0014
:100040000C94E60A0C948B000C94B40A0C948E0A5F
:100050000C948B000C948B000C948B000C948B00F4
:100060000C948B000C948B000A0B0C0D0E0F0001EE
:100070000203040500000008000201000003040759
:100080000000000000000000000000002500280023
:100090002B0000000000240027002A0004040404B0
:1000A0000404040402020202020203030303030322
:1000B00001020408102040800102040810200102FF
:1000C00004081020300B11241FBECFEFD8E0DEBF94
:1000D000CDBF12E0A0E0B1E0E4E2F5E202C005909D
:1000E0000D92AA36B107D9F723E0AAE6B2E001C023
:1000F0001D92A839B207E1F710E0C3E6D0E004C0D2
:100100002197FE010E942712C236D107C9F70E942B
:10011000B40B0C9490120C940000CF93DF9300D09A
:10012000CDB7DEB780911E0390911F03DC01ED91E6
:10013000FC910088F189E02D67E0099518161906F1
:100140000CF043C088E090E09A83898380911E037D
:1001500090911F03DC01ED91FC910288F389E02D61
:10016000AE014F5F5F4F64E273E0099597FD3CC0BD
:1001700029813A8121153105B9F18091240390E05C
:1001800001962817390781F580912703909128035C
:10019000982789279827092E000CAA0BBB0B4091A2
:1001A000200350912103609122037091230384174F
:1001B0009507A607B70761F4809135039091360340
:1001C00001969093360380933503809134030DC0DC
:1001D0008093200390932103A0932203B0932303E1
:1001E00081E080933403F1CF80E00F900F90DF9196
:1001F000CF9108950F931F93CF93DF93C7E0D1E082
:100200000AE011E080911E0390911F0340912C039E
:1002100050E04F5F5F4FDC01ED91FC910484F58568
:10022000E02D6CE273E0099580911E0390911F030D
:100230006991DC01ED91FC910684F785E02D09952B
:100240000C171D07F9F690E080E0DF91CF911F9128
:100250000F91089590E0FC01E055FF4F24918456E2
:100260009F4FFC018491882399F090E0880F991F9B
:10027000FC01EE56FF4FA591B491FC01E857FF4FEA
:10028000859194918FB7F894EC91E22BEC938FBF0A
:100290000895AF92BF92CF92DF92EF92FF920F93A9
:1002A0001F93CF93DF936C017B018B01040F151F0C
:1002B000EB015E01AE18BF08C017D10759F0699174
:1002C000D601ED91FC910190F081E02DC6010995D8
:1002D000892B79F7C501DF91CF911F910F91FF9085
:1002E000EF90DF90CF90BF90AF900895FC01538DB9
:1002F000448D252F30E0842F90E0821B930B541700
:1003000010F0CF96089501970895FC01918D828D8C
:10031000981761F0A28DAE0FBF2FB11D5D968C9125
:10032000928D9F5F9F73928F90E008958FEF9FEF64
:100330000895FC01918D828D981731F0828DE80F20
:10034000F11D858D90E008958FEF9FEF0895FC01DA
:10035000918D228D892F90E0805C9F4F821B9109A7
:100360008F739927089580E892E00E94A70121E009
:10037000892B09F420E0822F089580E090E0892BFA
:1003800029F00E94B30181110C9400000895FC0132
:10039000A48DA80FB92FB11DA35ABF4F2C91848DE6
:1003A00090E001968F739927848FA689B7892C9343
:1003B000A089B1898C91837080648C93938D848D96
:1003C000981306C00288F389E02D80818F7D808399
:1003D0000895EF92FF920F931F93CF93DF93EC0159
:1003E00081E0888F9B8D8C8D98131AC0E889F989DC
:1003F000808185FF15C09FB7F894EE89FF896083DF
:10040000E889F98980818370806480839FBF81E05F
:1004100090E0DF91CF911F910F91FF90EF900895A1
:10042000F62E0B8D10E00F5F1F4F0F731127E02E7C
:100430008C8D8E110CC00FB607FCFACFE889F989B4
:10044000808185FFF5CFCE010E94C701F1CFEB8DF2
:10045000EC0FFD2FF11DE35AFF4FF0829FB7F89488
:100460000B8FEA89FB8980818062CFCFCF93DF93A6
:10047000EC01888D8823B9F0AA89BB89E889F989BC
:100480008C9185FD03C0808186FD0DC00FB607FCF1
:10049000F7CF8C9185FFF2CF808185FFEDCFCE0124
:1004A0000E94C701E9CFDF91CF91089590E0FC0150
:1004B000EC58FF4F2491FC01E055FF4F3491FC01B3
:1004C000E456FF4FE491EE23C9F0222339F02330A4
:1004D00001F1A8F4213019F1223029F1F0E0EE0FFA
:1004E000FF1FE857FF4FA591B4918FB7F894EC9197
:1004F000611126C030953E233C938FBF089527306D
:10050000A9F02830C9F0243049F7809180008F7D10
:1005100003C0809180008F7780938000DFCF84B507
:100520008F7784BDDBCF84B58F7DFBCF8091B0000A
:100530008F778093B000D2CF8091B0008F7DF9CFBC
:100540003E2BDACF3FB7F894809170029091710200
:10055000A0917202B091730226B5A89B05C02F3FEF
:1005600019F00196A11DB11D3FBFBA2FA92F982FD9
:100570008827BC01CD01620F711D811D911D42E0D4
:10058000660F771F881F991F4A95D1F708958F929C
:100590009F92AF92BF92CF92DF92EF92FF924B0168
:1005A0005C010E94A2026B017C010E94A2026C19F4
:1005B0007D098E099F09683E734081059105A8F366
:1005C00021E0821A9108A108B10888EEC80E83E0E4
:1005D000D81EE11CF11C81149104A104B10429F777
:1005E000FF90EF90DF90CF90BF90AF909F908F9053
:1005F0000895FC0122813381848195812817390770
:1006000019F0822F0C9456020895CF93DF93EC01DA
:100610008C810E9456028B8D9C8D8230910538F022
:10062000880F991F880F991F05970197F1F7DF91A0
:10063000CF91089561E00C9405038EBD00000DB4C8
:1006400007FEFDCF8EB50895CF93C82F682F80E8A1
:1006500092E00E94E9018C2FCC0F990BCF91089565
:10066000982F28E030E080E0880F492F4170842BDC
:10067000969521503109C1F70895FC01680F791F43
:1006800090E080E0E617F707A1F0219148E050E004
:1006900030E0D901A82796958795A0FF04C0A8E06F
:1006A0008A27A4E89A27359527954150510981F763
:1006B000E9CF0895CF93DF93FC0101900020E9F783
:1006C0003197AF01481B590BBC0180E892E00E94B2
:1006D0004901EC0142E050E064E371E080E892E01F
:1006E0000E9449018C0F9D1FDF91CF9108950F93B8
:1006F0001F93CF93DF938C01EA014132510510F033
:10070000C0E2D0E0AE01C80147960E942D12F80168
:10071000C48B17AACE01DF91CF911F910F9108953D
:100720000F931F93FC01068117812085318540E0DE
:1007300052E16AE770E090E00417150726073707D3
:1007400040F476956795579547959F5F9630A1F74A
:1007500097E0292F206A2695909591702CBD9DBD1C
:1007600060E0CF011F910F910C9405030F931F932D
:10077000CF93DF93EC01062F142F0E949003802F5C
:1007800080620E941D038A87812F0E941D03CE0173
:10079000DF91CF911F910F910C941A030F931F9328
:1007A000CF938C01CEEFC60F61F0C3704C2F63E086
:1007B0000E94B603CE5FF801C38BCF911F910F91BA
:1007C000089540E063E00E94B60382E0F801838B65
:1007D000F4CFFC01448941FD09C04260448B60E0D4
:1007E0000E94B6038BE19EE40197F1F708951F93F1
:1007F000CF93DF93EC01162F0E949003812F80622C
:100800000E941D038A87CE01DF91CF911F910C9426
:100810001A03CF93DF93EC010E94900380E50E94BE
:100820001D038A8783E70E941D03CE01DF91CF91CC
:100830000C941A03DF92EF92FF920F931F93CF93C2
:10084000DF938C01C62FD42EE52EF22E0E9490034A
:100850008C2F80620E941D03F8018287CD2DDE2D32
:10086000FA94FFEFFF1621F089910E941D03F8CF43
:10087000C801DF91CF911F910F91FF90EF90DF9012
:100880000C941A031F93CF93DF93EC01162F0E9451
:100890009003812F0E941D038A878FEF0E941D0302
:1008A000182FCE010E941A03812FDF91CF911F9143
:1008B00008951F93CF93DF93EC0166E00E944204FA
:1008C000182F177D85E590E0A0E0B0E08F8B988F22
:1008D000A98FBA8F412F66E0CE010E94B60366E071
:1008E000CE010E94420491E0181390E0892FDF911D
:1008F000CF911F9108952F923F924F925F926F92E6
:100900007F928F929F92AF92BF92CF92DF92EF929F
:10091000FF920F931F93CF93DF93EC018D81282FCC
:100920002150330B39013A848901030D111D30E048
:1009300020E0063011052CF098012550310905E022
:1009400010E08B85E82EF12C87E0E80EF11C43E0E7
:10095000F594E7944A95E1F7E20EF31E8C85E80ED4
:10096000F11C8C81882319F0E2E0EE0EF11CF1E21B
:10097000EF16F1040CF0F0C0033011050CF4ECC0DC
:100980002E804F809AEA592E20FE02C085E5582E0F
:100990004E01800E911EB12CA12C6801CA18DB08F3
:1009A00021E0821A9108A614B7044CF4852D0E9408
:1009B0003003F4018687FFEFAF1ABF0AEECFC114F0
:1009C000D10481F1822D0E9430039601215031091A
:1009D000FE01E20FF31F8687232B21F1560122E04F
:1009E000A21AB108842D0E943003FE01EA0DFB1DFE
:1009F000868734E0331216C0AB28A1F0B98488850D
:100A00000E943003960123503109FE01E20FF31FCB
:100A10008687232B39F08B2D0E943003FE01EC0DCD
:100A2000FD1D8287DE2CED8A5E8A0B8B602F8A810A
:100A30009B810E94CE03EA80FB80F70123898E010F
:100A4000025F1F4FA8016AE0C7010E941A04F70164
:100A50002389A80160E1C7010E941A04EA80FB8093
:100A6000E9E6F0E06491F7012389A801C7010E943B
:100A70001A0462E0C7010E944204EFE6F0E0E4914C
:100A800041E050E001C0440FEA95EAF7482B62E0EC
:100A9000C7010E94B6038A819B814D854E5F4D3709
:100AA00008F04DE765E00E94B603EA80FB80D110B4
:100AB00002C0DD24D394F701D38611E1F701438509
:100AC000612FC7010E94B6031F5F1731B9F70A8172
:100AD0001B8140E061E0C8010E94B603F8018585F2
:100AE000882361F06DE1C8010E944204482F4D6FD8
:100AF0006DE1C8010E94B603F80115860A811B81C9
:100B000066E0C8010E944204482F476066E0C801C1
:100B10000E94B6038A819B810E9459048A819B812D
:100B2000FC014489477F448B60E00E94B60390E05B
:100B300080E0DF91CF911F910F91FF90EF90DF90B8
:100B4000CF90BF90AF909F908F907F906F905F906D
:100B50004F903F902F9008958FEF9FEFEACFFC01C9
:100B600064870C947B04FC0164830C947B042CEF5D
:100B7000260F2F3030F460FD04C0FC0163870C9415
:100B80007B048FEF9FEF089522E0FC01228777839B
:100B90006683518740870C947B04693020F4FC0104
:100BA00065830C947B048FEF9FEF08952F923F9203
:100BB0004F925F926F927F928F929F92AF92BF926D
:100BC000CF92DF92EF92FF920F931F93CF93DF9319
:100BD000CDB7DEB7AE970FB6F894DEBF0FBECDBF70
:100BE0008C01FC018585861364C0F801E280F380E6
:100BF00060E0C7010E94F902F7018789908D823079
:100C0000910508F075C0F7018585882321F061EE14
:100C1000C7010E94F703F70144894E7F448B60E0CF
:100C2000C7010E94B60362E0C7010E944204EEE6DB
:100C3000F0E0E49141E050E001C0440FEA95EAF7AA
:100C4000482B62E0C7010E94B603F801878945E599
:100C5000542E80FD02C03AEA532EF801E588F12CAB
:100C60009E012F5F3F4F3AA329A33384C32CC69420
:100C7000C694C694D12C4901712C612C6E147F044A
:100C80000CF070C053013FEFA31AB30AF801238997
:100C900030E0A501420F531F658170E046175707EA
:100CA0007CF586890E943003F40181934F01350160
:100CB000E5CF6587C8010E947B0497FF96CFAE966B
:100CC0000FB6F894DEBF0FBECDBFDF91CF911F915D
:100CD0000F91FF90EF90DF90CF90BF90AF909F90DB
:100CE0008F907F906F905F904F903F902F900895DE
:100CF000880F991F880F991F05970197F1F783CFE8
:100D00008285860F972F911D4817590724F5661A7B
:100D1000770AFFEF6F1A7F0A620E731E21E06216D8
:100D2000710499F024F4672869F080E0BBCF82E079
:100D30006816710469F093E069167104B1F7F8015F
:100D40008185B0CFF8018681ADCFF8018781AACF28
:100D5000F8018085A7CF8C0D9D1D4817590714F405
:100D6000852DA0CFF80144808489A82EB12C442081
:100D700039F0B501C80147960E943D039CA78BA797
:100D8000832D8770E82EF12CC52CD12C88E090E0C3
:100D90008E199F0902C0D594C7948A95E2F782E024
:100DA00090E0411002C090E080E09C012A0D3B1DC4
:100DB00038A72FA3C50101969AA789A718018FEF1D
:100DC0009FE1A89EF001A99EF00DB89EF00D1124A0
:100DD000FEA7EDA7912C812C512C8A149B04ACF416
:100DE000F101878990E00E2C02C0880F991F0A94A8
:100DF000E2F7C82AD92AF8E0EF0EF11C511021C001
:100E000028E030E03EA32DA31EC04420C1F029A558
:100E10003AA528153905D4F18DA59EA5880D991DF3
:100E200023E0880F991F2A95E1F7EBA5FCA502C0E6
:100E3000F695E7958A95E2F7CF019927D4CF552407
:100E400053941EA21DA281E090E08C0F9D1F860D81
:100E5000971D9CA38BA3EDA1FEA1EE15FF05C4F485
:100E6000F0E26F1671040CF098C02FEF621A720A4C
:100E70008C2D0E943003EBA1FCA18193FCA3EBA37A
:100E8000CD2CDD24F8E0EF1AF108E5CF542CB6CFD5
:100E90002FEF821A920A3FEF231A330A8FA198A5E7
:100EA000881599050CF099CFF80102811381862DE0
:100EB000F8019485911119C0F384F61408F46F2C8D
:100EC000F618C8010E94900380EA0E941D03F801F1
:100ED00082876A94FFEF6F1699F0E9A1FAA18191D8
:100EE000FAA3E9A30E941D03F4CFFF24F394611039
:100EF000F12C682EF0E2F81720F780E2682EE1CF9F
:100F0000FA94FFEFFF1621F080E00E941D03F8CF56
:100F1000C8010E941A0361E0C8010E94F9028FB75C
:100F2000F894C0906C02D0906D02E0906E02F09048
:100F30006F028FBF6FEFC8010E94F703F80182852F
:100F40008073C9F42FB7F89480916C0290916D0270
:100F5000A0916E02B0916F022FBF8C199D09AE094E
:100F6000BF0980369105A105B10520F381E0868B8C
:100F700090E080E0A4CE60E0C8010E94F90240E762
:100F800067E0C8010E94B603F801828584FFF0CFB4
:100F900061EEC8010E94F703EBCF8FEF9FEF8FCE7A
:100FA0002F923F924F925F926F927F928F929F9279
:100FB000AF92BF92CF92DF92EF92FF920F931F9367
:100FC000CF93DF93CDB7DEB7A8970FB6F894DEBF07
:100FD0000FBECDBF8C01DC011D968C911D97861331
:100FE00061C0F801E280F380C7010E94E903D701E4
:100FF00054964C915497416054964C9360E0C701CD
:101000000E94B60340E767E0C7010E94B60361E0B3
:10101000C7010E94F902F7018685882309F462C09E
:10102000A701425F5F4F23896AE0C7010E941A044B
:10103000D8011296ED90FC906FEFC7010E94F70364
:10104000F701828590E0959587958770863008F046
:10105000BFC0D8011296ED90FC9013975596BC90A6
:10106000F7018485811153C0A384AB1408F4BA2C12
:10107000AB18C7010E94900381E60E941D03D701AF
:101080001A968C93FE0131963F016F01BA94FFEFDF
:10109000BF1609F443C08FEF0E941D03D6018D9344
:1010A0006D01F4CF1D966C93C8010E947B0497FFDD
:1010B00098CFA8960FB6F894DEBF0FBECDBFDF91D4
:1010C000CF911F910F91FF90EF90DF90CF90BF9045
:1010D000AF909F908F907F906F905F904F903F90D8
:1010E0002F90089562E0C7010E944204EEE6F0E00E
:1010F000E49121E030E001C0220FEA95EAF7209563
:10110000422F482362E0C7010E94B60391CFF0E26C
:10111000FB1510F450E2B52EA12CABCFAA94BFEF73
:10112000AB1621F08FEF0E941D03F8CFC7010E947C
:101130001A0340E467E0C7010E94B603D801ED91AD
:10114000FC910190F081E02DC8010995F80183859B
:10115000F82FF770FAA3D80155969C91E92FF0E08B
:10116000FCA3EBA390E007969C0143E035952795FF
:101170004A95E1F73EA32DA3F12CE12CB12CA12C33
:10118000D12CC12C8BA19CA1E816F9060CF084C0CF
:10119000D3018D913D010E943003AB2CBB24482F1D
:1011A00050E0B82AF7013196F8A7EFA3D80153967B
:1011B0006C91539770E0E60FF71F15962C911597D9
:1011C00030E0E217F30764F456969C918917F9F022
:1011D000F80187A9882309F49AC0848990E069CF2F
:1011E0001A96BC91B9A3C9018B0F911DE817F90795
:1011F000D4F5E21AF30ABFEFEB1AFB0AE60EF71E6C
:10120000E1E0EE16F10401F12CF4EF28A9F0EFA0D3
:10121000F8A4B8CF22E0E216F104E9F033E0E316D7
:10122000F104A9F7B9A1B43091F7F8014184512C28
:101230004415550561F3CCCFD80116968D919C913C
:101240004817590721F3C4CFF8012780312C4215E4
:101250005305E9F2BDCFF9A1F430C9F6D8011896CB
:101260008D919C91EDCF2DA13EA1820F931FE81788
:10127000F9076CF2E1E0F0E0EC0FFD1FEC0DFD1D55
:10128000C5010AA002C0969587950A94E2F780836B
:10129000C60101966C01BBCFD80114968C918823AE
:1012A000A1F1B2E0CB16D1040CF492CF7601E2E0CA
:1012B000EE1AF108B701CE0101960E943D03E1E06C
:1012C000F0E0EC0FFD1FEE0DFF1D208130E08217D6
:1012D000130609F07DCF892E912CFE01EC0DFD1D2A
:1012E00080818815190409F073CFA701BE016F5FD3
:1012F0007F4FC80147960E942D12D8015496EC9258
:10130000549781E0D7968C9363CF7601EECF90E02F
:1013100080E0CFCEEF92FF920F931F93CF93DF9396
:101320008C01CB01EA01F801248930E04881598120
:101330002417350710F4398328837801F7E1EF0E7D
:10134000F11C48815981B7010E942D12F80184894E
:101350009881891B848B082F10E0882341F06881D5
:1013600079816E0D7F1DA801C7010E943612C80148
:10137000DF91CF911F910F91FF90EF900895FF9211
:101380000F931F93CF93DF938C01FC01C281D38114
:10139000FFB6F89480916A02811124C0E6EAF0E079
:1013A0008491EAEBF0E09491E82FF0E0EE0FFF1F5C
:1013B000EE56FF4FA591B491EC91E92321F461E041
:1013C0008AE00E9456028AE00E942A018CB5806160
:1013D0008CBD8CB580648CBD8DE00E942A018BE0B1
:1013E0000E942A0180916A028F5F80936A02FFBE89
:1013F0008A819B818F3F980761F487E391E00E9487
:101400006512C801DF91CF911F910F91FF900C944D
:101410007B042C813D812F3F320779F3821793079C
:1014200029F00E942A018C810E942A0160E0CE01ED
:101430000E94F90261E0CE010E94050365E070E0C0
:1014400080E090E00E94C7024FE564E0CE010E9478
:10145000B603CE010E9459046DE1CE010E94420400
:10146000F82ECE010E9409046DE1CE010E944204D3
:1014700091E0F81290E09D8B882351F0F81203C0A0
:10148000CE010E94090440E06DE1CE010E94B60346
:101490001D8640E06CE1CE010E94B6031C864FE33E
:1014A00061E0CE010E94B60343E062E0CE010E94FB
:1014B000B60380E28B8781E1F82E4B856F2DCE013C
:1014C0000E94B603F39487E1F812F7CF65E0CE01EE
:1014D0000E94CE034CE465E0CE010E94B60340E7D3
:1014E00067E0CE010E94B60362EECE010E94F703D0
:1014F00061EECE010E94F7034CE060E0CE010E9455
:10150000B60360E0CE010E9442048C8BCE010E94A3
:10151000E9038C898E3009F070CF73CF1F920F9240
:101520000FB60F9211242F933F934F935F936F93B6
:101530007F938F939F93AF93BF93EF93FF9380E835
:1015400092E00E94C701FF91EF91BF91AF919F91EF
:101550008F917F916F915F914F913F912F910F905C
:101560000FBE0F901F9018951F920F920FB60F92FB
:1015700011242F938F939F93EF93FF93E091900209
:10158000F09191028081E0919602F091970282FDA4
:101590001BC09081809199028F5F8F7320919A0276
:1015A000821741F0E0919902F0E0E058FD4F958FED
:1015B00080939902FF91EF919F918F912F910F90BE
:1015C0000FBE0F901F9018958081F4CF1F920F923D
:1015D0000FB60F9211242F933F938F939F93AF9346
:1015E000BF9380916C0290916D02A0916E02B091B8
:1015F0006F0230916B0223E0230F2D3758F50196CF
:10160000A11DB11D20936B0280936C0290936D021B
:10161000A0936E02B0936F0280917002909171025C
:10162000A0917202B09173020196A11DB11D809329
:10163000700290937102A0937202B0937302BF91F3
:10164000AF919F918F913F912F910F900FBE0F906F
:101650001F90189526E8230F0296A11DB11DD2CF29
:10166000E0E8F2E01382128288EE93E0A0E0B0E0BE
:1016700084839583A683B7838EE091E091838083F2
:1016800085EC90E09587848784EC90E09787868747
:1016900080EC90E0918B808B81EC90E0938B828B3F
:1016A00082EC90E0958B848B86EC90E0978B868B18
:1016B000118E128E138E148EAFE6B3E087E090E0A9
:1016C00013969C938E93129788E090E015969C93C6
:1016D0008E93149740E856E968E970E016964D93AA
:1016E0005D936D937C93199780E21B968C931B9767
:1016F00081E01C968C931C9795E053969C9353978E
:1017000055961C92559745E050E060E070E05B967E
:101710004D935D936D937C935E972DE133E011962D
:101720003C932E931E961C921E97E7E3F3E020E273
:1017300031E031832083B383A283858317821682AD
:101740001186108684E08287838788E084871586E7
:10175000148A158A168A17AAAEE1B3E01196FC9393
:10176000EE9356961C920895CF93DF9300D000D04D
:101770001F92CDB7DEB7789484B5826084BD84B5FE
:10178000816084BD85B5826085BD85B5816085BD7C
:1017900080916E00816080936E0010928100809134
:1017A00081008260809381008091810081608093BC
:1017B0008100809180008160809380008091B100E1
:1017C00084608093B1008091B00081608093B0000C
:1017D00080917A00846080937A0080917A008260A0
:1017E00080937A0080917A00816080937A00809162
:1017F0007A00806880937A001092C100E091900294
:10180000F091910282E08083E0918C02F0918D0250
:101810001082E0918E02F0918F0280E1808310921D
:101820009802E0919402F091950286E08083E09125
:101830009202F0919302808180618083E091920214
:10184000F0919302808188608083E0919202F09110
:101850009302808180688083E0919202F0919302EC
:1018600080818F7D808370E060E084E293E00E945D
:10187000DF0D68EE73E080E090E00E94C7028AE529
:1018800091E00E945A0380911E0390911F03DC0196
:10189000ED91FC910190F081E02D099597FD4FC0ED
:1018A00080911E0390911F03DC01ED91FC91028455
:1018B000F385E02D61E0099597FD41C080911E03FD
:1018C00090911F03DC01ED91FC910280F381E02DEA
:1018D00063E0099597FD33C080911E0390911F032B
:1018E000DC01ED91FC910680F781E02D64E0099523
:1018F00097FD25C080911E0390911F03DC01ED919F
:10190000FC910480F581E02D50E040E063E070E15F
:10191000099597FD14C080911E0390911F03DC016F
:10192000ED91FC910084F185E02D66E0099597FD2D
:1019300006C080913403811102C00E948D00FE0117
:1019400031967F0198E7692E91E0792E22E0A22E50
:10195000B12C88248394912C85E0382E4424439420
:101960005524539480910001882309F461C080912B
:101970003403882389F18AE090E00E945E1280910E
:10198000340310E000E0882381F00091240310E08C
:101990000530110510F005E010E0A80165E273E0E4
:1019A000C7010E942D1210923403670101501109E2
:1019B000C6018E199F098017910790F4D6018D9169
:1019C0006D011F928F937F926F920E9448120F9029
:1019D0000F900F900F90ECCF0E948D008111CBCF14
:1019E000009135031091360380917E0290917F0221
:1019F00080179107ECF48EE290E00E945E128091D5
:101A00007E0290917F02019690937F0280937E02E6
:101A1000EBCF8FEB810F863010F489EC1EC090E085
:101A200080E01DC080937A0290927C0280927B02BB
:101A300080E892E00E94A701892B09F4B3C080E8F6
:101A400092E00E948501182F80ED810F8A3030F0DE
:101A50008FE9810F8630E8F689EA810F91E02091C5
:101A60007D02211182C0992309F443C020917B0299
:101A700030917C022130310549F0A0F2223031054D
:101A8000B9F683EB91E00E945A03D2CFE09179023C
:101A9000E53028F520917A02B0E12B9F90011124C6
:101AA000822B91E09E0F90937902F0E0EC58FD4F6D
:101AB0008083809179028430B8F080917402909193
:101AC0007502890F90917602890F9091770289278C
:101AD00080937802B0927C02A0927B02A9CF8EE71D
:101AE00091E00E945A03E5CF10927C0210927B0293
:101AF0009FCF103231F06CF51A3019F01D3009F01B
:101B000097CF80917B0290917C02029769F485E0E7
:101B1000E4E7F2E0ADE2B3E001900D928A95E1F7DF
:101B200030922C030E94FA00103209F481CF1092F7
:101B3000790210927C0210927B021E3209F078CF5B
:101B40000E94FA0061E070E080E090E00E94C7022D
:101B50006FCF1E32B1F2183709F06ACF8AEE91E0EA
:101B60000E945A0350927D0263CF1D3029F0123734
:101B700061F01A3009F05CCF1092790210927C0269
:101B800010927B0210927D0253CF80910001842538
:101B900080930001882319F085E492E074CF85E5F5
:101BA00092E071CF80E090E0892B09F4DBCE0E94B7
:101BB000B301882309F4D2CE0E940000CDCE0F934A
:101BC0001F93CF93DF93009759F46115710541F48A
:101BD000F0E0E0E0CF01DF91CF911F910F910895E8
:101BE0008B01EC016EE070E081E090E00E94041057
:101BF000FC01892B69F380E883830115110571F0DD
:101C00001387028781E8838380918E0390918F03ED
:101C1000892B21F4F0938F03E0938E032097D1F268
:101C2000D187C08783818260838380919003909164
:101C30009103892B79F6F0939103E09390038091BF
:101C4000920390919303892B29F6F0939303E093E9
:101C50009203C0CFABE0B0E0E0E3FEE00C94F01103
:101C60007C013B018A01FC0117821682838181FF7E
:101C7000C8C1CE0101965C01F7019381F30193FD88
:101C8000859193FF81913F01882309F453C18532E7
:101C900039F493FD859193FF81913F01853229F4B9
:101CA000B70190E00E946211E7CF912C212C312CDA
:101CB000FFE1F31538F08B3211F190F4803209F125
:101CC000833229F137FC3CC020ED280F2A3050F533
:101CD00036FE20C08AE0989E200D1124922E06C068
:101CE0008D3291F0803371F7689430F8F30193FDF1
:101CF000859193FF81913F018111DACF21C06894D2
:101D000031F8689432F8F2CF689433F8EFCF6894E2
:101D100034F8ECCFEAE02E9E200D1124222E689498
:101D200035F8E4CF8E3229F436FC04C1689436F8D5
:101D3000DDCF8C3619F4689437F8D8CF8836B1F2F5
:101D4000982F9F7D95549330E0F08336A1F183372F
:101D5000C1F1833509F063C02801F2E04F0E511C38
:101D6000F801C080D180692D70E036FC02C06FEFB1
:101D70007FEFC6010E9445114C01689437F882013B
:101D80000AC00C5F1F4FFFE3F98388248394912CD2
:101D90006501E89437F833FE2DC0522C811491046C
:101DA00071F5552009F468CFB70180E290E00E94F8
:101DB00062115A94F6CFF801808189830E5F1F4F1C
:101DC000E4CF2801F2E04F0E511CF801C080D18011
:101DD000692D70E036FC02C06FEF7FEFC6010E94F4
:101DE00057114C018201D5CFB70180E290E00E94EB
:101DF00062112A942814190409F0B0F7CECFF60125
:101E000037FC859137FE81916F01B70190E00E9408
:101E1000621151105A94F1E08F1A9108BFCF8436A5
:101E200019F0893609F077C0F80137FE6BC0608180
:101E30007181828193810C5F1F4FF32DFF763F2EBE
:101E400097FF09C090958095709561957F4F8F4F52
:101E50009F4F689437F82AE030E0A5010E94921164
:101E6000C82ECA188C2C432C36FE0CC0E89440F8BF
:101E7000C91440F434FE05C032FC03C0F32DFE7ECD
:101E80004F2E892C44FE95C0FE01EC0DF11D808182
:101E9000803309F087C0242D297E422E842D88703E
:101EA000582E43FC95C040FE8FC09C2C821418F421
:101EB0002C0C922C981844FE91C0B70180E390E05E
:101EC0000E94621142FE09C088E790E041FE02C014
:101ED00088E590E0B7010E946211C91408F48AC035
:101EE000CA94D12C9FEFC91AD90ACA0CDB1CF6017F
:101EF00082916F01B70190E00E946211AC14BD04A1
:101F0000B1F74FCF60817181072E000C880B990BC0
:101F10000E5F1F4F92CFD32CE894D4F82AE030E024
:101F2000853739F1232D297FD22E8F3601F148F4E0
:101F30008835A9F0F701868197812B96E2E10C9410
:101F40000C12803749F08837A9F7D4FE02C0689494
:101F5000D2F820E130E00DC06894D4F8F6CF34FE1A
:101F600003C0822F8660D82E20E132E002C028E034
:101F700030E0F801D7FE0FC06081718182819381CA
:101F80000C5F1F4FA5010E949211C82ECA183D2C4C
:101F9000E89437F867CF6081718190E080E00E5F50
:101FA0001F4FF0CF42FC02C0839478CF8394839478
:101FB00075CF842D867809F471CFF6CFB70180E212
:101FC00090E00E94621183948214C0F3512C73CF6D
:101FD000522C5818821408F46ECFF8CF842D8678CE
:101FE00009F47BCF8BE241FE80E247FC8DE2B70132
:101FF00090E071CFB70180E390E00E9462119A9463
:102000006CCF8FEF9FEF99CF0F931F93CF93DF93F9
:10201000869F8001879F100D969F100D1124C80187
:102020000E942010EC01009729F0A80170E060E008
:102030000E945011CE01DF91CF911F910F91089511
:102040000F931F93CF93DF938230910510F482E0BA
:1020500090E0E0919603F091970330E020E0B0E04B
:10206000A0E0309799F42115310509F44AC0281BE6
:10207000390B24303105D8F58A819B8161157105B2
:1020800089F1FB0193838283FE0111C0408151815C
:102090000281138148175907E0F04817590799F44E
:1020A000109761F012960C93129713961C93329628
:1020B000CF01DF91CF911F910F9108950093960367
:1020C00010939703F4CF2115310551F042175307B0
:1020D00038F0A901DB019A01BD01DF01F801C1CF90
:1020E000EF01F9CF9093970380939603CDCFFE0134
:1020F000E20FF31F81939193225031093983288392
:10210000D7CF2091940330919503232B41F4209154
:10211000030130910401309395032093940320919F
:102120000101309102012115310541F42DB73EB76F
:102130004091050150910601241B350BE091940359
:10214000F0919503E217F307A0F42E1B3F0B28171D
:10215000390778F0AC014E5F5F4F2417350748F020
:102160004E0F5F1F50939503409394038193919377
:102170009FCFF0E0E0E09CCFCF93DF930097E9F0B2
:10218000FC01329713821282A0919603B0919703BB
:10219000ED0130E020E01097A1F420813181820F21
:1021A000931F20919403309195032817390709F064
:1021B00061C0F0939503E0939403DF91CF9108956C
:1021C000EA01CE17DF07E8F54A815B819E014115E0
:1021D0005105B1F7E901FB83EA8349915991C40F95
:1021E000D51FEC17FD0761F4808191810296840F61
:1021F000951FE90199838883828193819B838A83D8
:10220000F0E0E0E012968D919C9113970097B9F55C
:102210002D913C911197CD010296820F931F209131
:102220009403309195032817390739F6309751F503
:102230001092970310929603B0939503A093940382
:10224000BCCFD383C28340815181840F951FC817AF
:10225000D90761F44E5F5F4F88819981480F591FFC
:10226000518340838A819B81938382832115310529
:1022700009F0B0CFF0939703E09396039ECFFD0152
:10228000DC01C0CF13821282D7CFFC0105906150D0
:1022900070400110D8F7809590958E0F9F1F08957C
:1022A000DC0101C06D9341505040E0F70895FC01FE
:1022B0006150704001900110D8F7809590958E0F75
:1022C0009F1F08950F931F93CF93DF93182F092F0C
:1022D000EB018B8181FD09C01FEF0FEF812F902F44
:1022E000DF91CF911F910F91089582FF14C02E812D
:1022F0003F818C819D81281739073CF4E881F98161
:10230000CF0101969983888310838E819F810196E6
:102310009F838E83E3CFE885F985812F0995892BEB
:10232000A1F3DACFFA01AA27283051F1203181F147
:10233000E8946F936E7F6E5F7F4F8F4F9F4FAF4FCD
:10234000B1E03ED0B4E03CD0670F781F891F9A1FE0
:10235000A11D680F791F8A1F911DA11D6A0F711D94
:10236000811D911DA11D20D009F468943F912AE0A0
:10237000269F11243019305D3193DEF6CF01089588
:10238000462F4770405D4193B3E00FD0C9F7F6CFB9
:10239000462F4F70405D4A3318F0495D31FD405281
:1023A000419302D0A9F7EACFB4E0A6959795879517
:1023B00077956795BA95C9F70097610571050895F6
:1023C0009B01AC010A2E06945795479537952795A2
:1023D000BA95C9F7620F731F841F951FA01D08953A
:1023E0002F923F924F925F926F927F928F929F9225
:1023F000AF92BF92CF92DF92EF92FF920F931F9313
:10240000CF93DF93CDB7DEB7CA1BDB0B0FB6F894C3
:10241000DEBF0FBECDBF09942A88398848885F8403
:102420006E847D848C849B84AA84B984C884DF8074
:10243000EE80FD800C811B81AA81B981CE0FD11D58
:102440000FB6F894DEBF0FBECDBFED010895EE0FBD
:10245000FF1F0590F491E02D0994FB01DC0102C0FF
:1024600001900D9241505040D8F7089568177907B0
:1024700068F4FB01DC01E40FF51FA40FB51F02C0D7
:1024800002900E9241505040D8F708950C942D12AE
:10249000B0E0A0E0EEE4F2E10C940012AE014B5F7C
:1024A0005F4FFA0161917191AF018091900390911A
:1024B00091030E942A0EE2E00C941C12609190039A
:1024C000709191030E94621108950F931F93CF930F
:1024D000DF93E0919003F09191032381EC0110E0F0
:1024E00000E021FD08C00FEF1FEF14C00995892BF4
:1024F00011F00FEF1FEF899160919003709191039C
:10250000DB011896ED91FC918111F0CF8AE00995DD
:10251000892B49F7C801DF91CF911F910F91089541
:10252000F894FFCF010000980380000720420000CC
:102530000000E901490176013602A70185019901F0
:1025400000000000BF09CD05C405B705AF05B30500
:102550007703D605D0078A090D0A00726164696F96
:10256000206861726477617265206973206E6F7490
:1025700020726573706F6E64696E6721210023207D
:10258000446176696473205472616E736D6974740A
:102590006572207374617274696E670025303258F9
:1025A000200023204572726F723A206F7574676F36
:1025B000696E67207061636B65742062756666651D
:1025C000722066756C6C2F7061636B657420746F1C
:1025D0006F206C6F6E67002320496E666F3A206F24
:1025E0007574676F696E67207061636B65742063D3
:1025F0006F6D706C6574652E205072657373206505
:102600006E74657220746F2073656E642E002320D3
:102610004573636170656420746F20657874656EBE
:1026200064656420636F6D6D616E64733A2072201F
:102630002D20546F67676C652072656365697665E8
:10264000723B20507265737320656E7465722074DE
:102650006F2072657475726E20746F206E6F726D6C
:10266000616C206D6F64652E0023204E6F772072A1
:102670006563656976696E670023204E6F77206E0B
:0E2680006F7420726563656976696E6700008D
:107800000C94343C0C94513C0C94513C0C94513CE1
:107810000C94513C0C94513C0C94513C0C94513CB4
:107820000C94513C0C94513C0C94513C0C94513CA4
:107830000C94513C0C94513C0C94513C0C94513C94
:107840000C94513C0C94513C0C94513C0C94513C84
:107850000C94513C0C94513C0C94513C0C94513C74
:107860000C94513C0C94513C11241FBECFEFD8E036
:10787000DEBFCDBF11E0A0E0B1E0ECE9FFE702C060
:1078800005900D92A230B107D9F712E0A2E0B1E065
:1078900001C01D92AD30B107E1F70E942D3D0C945F
:1078A000CC3F0C94003C982F959595959595959582
:1078B000905D8F708A307CF0282F295A8091C0000B
:1078C00085FFFCCF9093C6008091C00085FFFCCF60
:1078D0002093C6000895282F205DF0CF982F809127
:1078E000C00085FFFCCF9093C6000895EF92FF92F1
:1078F0000F931F93EE24FF2487018091C00087FD22
:1079000017C00894E11CF11C011D111D81E4E8164B
:1079100082E4F8068FE0080780E0180770F3E09132
:107920000401F091050109958091C00087FFE9CF1E
:107930008091C6001F910F91FF90EF9008950E94D3
:10794000763C982F8091C00085FFFCCF9093C600B5
:1079500091362CF490330CF09053892F089597555D
:10796000892F08951F930E949F3C182F0E949F3CCF
:107970001295107F810F1F9108951F93182F882350
:1079800021F00E94763C1150E1F71F9108951F935A
:10799000182F0E94763C803249F0809103018F5F5E
:1079A000809303018530C1F01F9108958091C0003C
:1079B00085FFFCCF84E18093C6008091C00085FFE5
:1079C000FCCF1093C6008091C00085FFFCCF80E102
:1079D0008093C6001F910895E0910401F091050184
:1079E00009951F9108950E94763C803241F0809164
:1079F00003018F5F80930301853081F008958091AA
:107A0000C00085FFFCCF84E18093C6008091C00058
:107A100085FFFCCF80E18093C6000895E0910401CA
:107A2000F09105010995089540E951E08823A1F0FE
:107A30002D9A28EE33E0FA013197F1F721503040CA
:107A4000D1F72D9828EE33E0FA013197F1F7215064
:107A50003040D1F7815061F708953F924F925F9285
:107A60006F927F928F929F92AF92BF92CF92DF924E
:107A7000EF92FF920F931F93CF93DF93000080E16B
:107A80008093C4001092C50088E18093C10086E015
:107A90008093C2005098589A259A81E00E94143D24
:107AA00024E1F22E9EE1E92E85E9D82E0FE0C02ECA
:107AB00010E1B12EAA24A394B1E49B2EA6E58A2E50
:107AC000F2E57F2EE0E26E2E79E4572E63E5462E36
:107AD00050E5352E0E94763C8033B1F18133B9F107
:107AE000803409F46FC0813409F476C0823409F41B
:107AF00085C0853409F488C0803531F1823521F1A3
:107B0000813511F1853509F485C0863509F48DC0BC
:107B1000843609F496C0843709F403C1853709F423
:107B200072C1863709F466C0809103018F5F80932C
:107B30000301853079F6E0910401F0910501099582
:107B40000E94763C803351F60E94F33CC3CF0E94E2
:107B5000763C803249F78091C00085FFFCCFF092DF
:107B6000C6008091C00085FFFCCF9092C600809136
:107B7000C00085FFFCCF8092C6008091C00085FFC9
:107B8000FCCF7092C6008091C00085FFFCCF609250
:107B9000C6008091C00085FFFCCF5092C600809146
:107BA000C00085FFFCCF4092C6008091C00085FFD9
:107BB000FCCF3092C6008091C00085FFFCCFB09210
:107BC000C60088CF0E94763C863808F4BDCF0E945C
:107BD000763C0E94F33C7ECF0E94763C803809F4CC
:107BE0009CC0813809F40BC1823809F43CC1883942
:107BF00009F48FC080E00E94C73C6CCF84E10E94F2
:107C0000BD3C0E94F33C66CF85E00E94BD3C0E94D3
:107C1000F33C60CF0E94763C809306010E94763C44
:107C2000809307010E94F33C55CF0E94763C80333D
:107C300009F41DC183E00E94BD3C80E00E94C73C66
:107C400049CF0E94763C809309020E94763C809343
:107C5000080280910C028E7F80930C020E94763C79
:107C6000853409F415C18091080290910902892B8D
:107C700089F000E010E00E94763CF801E85FFE4FDA
:107C800080830F5F1F4F80910802909109020817AF
:107C9000190788F30E94763C803209F045CF809125
:107CA0000C0280FF01C16091060170910701660F0F
:107CB000771F7093070160930601A0910802B091AD
:107CC00009021097C9F0E8E0F1E09B01AD014E0F09
:107CD0005F1FF999FECF32BD21BD819180BDFA9A17
:107CE000F99A2F5F3F4FE417F50799F76A0F7B1F4B
:107CF00070930701609306018091C00085FFFCCF5F
:107D0000F092C6008091C00085FFFCCFB092C60003
:107D1000E1CE83E00E94C73CDDCE82E00E94C73CFA
:107D2000D9CE0E94763C809309020E94763C8093D3
:107D300008028091060190910701880F991F909386
:107D40000701809306010E94763C853409F4A6C0A1
:107D500080910C028E7F80930C020E94763C8032D0
:107D600009F0B8CE8091C00085FFFCCFF092C6002C
:107D7000609108027091090261157105B9F140E046
:107D800050E080910C02A82FA170B82FB27011C0E2
:107D9000BB2309F45CC0E0910601F0910701319624
:107DA000F0930701E09306014F5F5F4F46175707B7
:107DB000E8F4AA2369F3F999FECF209106013091E6
:107DC000070132BD21BDF89A90B58091C00085FFB2
:107DD000FCCF9093C6002F5F3F4F30930701209355
:107DE00006014F5F5F4F4617570718F38091C00099
:107DF00085FDE5CE8091C00085FFF8CFE0CE81E023
:107E00000E94C73C67CE0E94763C803209F08CCE3F
:107E10008091C00085FFFCCFF092C6008091C00029
:107E200085FFFCCFE092C6008091C00085FFFCCFAB
:107E3000D092C6008091C00085FFFCCFC092C600E2
:107E40008091C00085FFFCCFB092C60043CEE09188
:107E50000601F091070194918091C00085FFFCCF4D
:107E60009093C6009CCF80E10E94C73C33CE0E9415
:107E7000763C0E94763C182F0E94763C112309F430
:107E800083C0113009F484C08FE00E94C73C22CE29
:107E900080910C02816080930C02E5CE80910C02EF
:107EA000816080930C0259CF809107018823880F4D
:107EB000880B8A2180930B02809106019091070123
:107EC000880F991F90930701809306018091080203
:107ED00080FF09C080910802909109020196909359
:107EE000090280930802F894F999FECF1127E091D6
:107EF0000601F0910701C8E0D1E08091080290915D
:107F00000902103091F40091570001700130D9F34B
:107F100003E000935700E89500915700017001308D
:107F2000D9F301E100935700E89509901990009169
:107F3000570001700130D9F301E000935700E89534
:107F40001395103498F011270091570001700130FB
:107F5000D9F305E000935700E895009157000170B0
:107F60000130D9F301E100935700E895329602976A
:107F700009F0C7CF103011F00296E5CF112480919F
:107F8000C00085FFB9CEBCCE8EE10E94C73CA2CD19
:0E7F900085E90E94C73C9ECDF894FFCF80008B
:00000001FF
